:100000000C945A020C9477020C9477020C947702A9
:100010000C9477020C9477020C9477020C9477027C
:100020000C9477020C9477020C945E1D0C94321E93
:100030000C9442180C9477020C9477020C9477027B
:100040000C9477020C9477020C9477020C9477024C
:100050000C9477020C94C9180C9477020C947702D4
:100060000C9477020C9477020C9477020C9477022C
:100070000C9477020C9477020C9477020C9477021C
:100080000C9477020C9477020C9477020C9477020C
:100090000C9477020C9477020C9477020C947702FC
:1000A0000C9477020C9477020C94770229001400C8
:1000B0001A000800150017001C0018000C001200A0
:1000C00013002A002B0004001600070009000A0094
:1000D0000B000D000E000F0033003400E1001D0086
:1000E0001B00060019000500110010003600370043
:1000F00038002800E0000251E300E20004512C0027
:100100002C0003515000510052004F00010001002B
:1001100001000100010001000100010001000100D7
:1001200001000100010001000100010001000100C7
:1001300001000100010001000100010001000100B7
:1001400001000100010001000100010001000100A7
:100150000100010001000100010001000100010097
:1001600001000100010001000100010001001E0862
:100170001F082008210822082308010001000100AF
:1001800001004C000100F1000100F200010001003B
:10019000EF00EE00ED00F0000100010001000100A1
:1001A0000100010001000100010001000100010047
:1001B0000100A600E40101000100010001000100AE
:1001C00001000100FB00FA00F900FC0035001E02EE
:1001D0001F022002210222022302240225022602FB
:1001E00027022A0001003A003B003C003D003E008F
:1001F0003F002D022E022F0230023102010040008A
:100200004100420043004400450032022E002E020D
:1002100025020100010001000100010001000100B0
:100220000100010001004D004A00010035021E00DE
:100230001F002000210022002300240025002600AA
:1002400027002A0001003A003B003C003D003E0030
:100250003F002D002E002F00300031000100400033
:100260004100420043004400450032002D002D02B1
:100270002202010001000100010001000100010053
:100280000100010001004E004B0001001E001E0095
:100290001E001E001E001E001E001E001E001E006E
:1002A0001E001E00000014001A00080015001700B0
:1002B0001C0018000C00120013002F0000000400A6
:1002C0001600070009000A000B000D000E000F00C9
:1002D0003300340010500000000006001900000038
:1002E0000000110010000000000000000100005C90
:1002F000015CC35CC45CC65CC75CC85CC95CCA5CAE
:10030000CB5C4C0001000100295C1D5C1E5C135C91
:100310000A5C1050115012501550010001002B5C66
:100320002A5C265C275C2C5C2D5C00000000010030
:1003300001000100010001000100010001000100B5
:100340000100010001000100010001000E03430053
:100350006F006E0074007200610000000E03430025
:1003600061007200740065006C0000000403090461
:1003700009023B00020100A0FA0904000001030188
:100380000100092111010001224000070581030835
:10039000000109040100010300000009211101000E
:1003A0000122B600070582032000011201000200AD
:1003B0000000085443010001000102000105010989
:1003C00002A10185020901A10005091901290815E9
:1003D00000250195087501810205010930093115D3
:1003E00081257F95027508810609381581257F953D
:1003F0000175088106050C0A38021581257F9501D3
:1004000075088106C0C005010980A1018503190195
:100410002AB700150126B700950175108100C005A7
:100420000C0901A101850419012AA002150126A0C9
:1004300002950175108100C005010906A10185061C
:10044000050719E029E715002501950875018102C6
:100450000507190029EF1500250195F075018102A6
:100460000508190129059505750191029501750386
:100470009101C005010906A101050719E029E71549
:100480000025019508750181029501750881010516
:1004900007190029FF150026FF0095067508810041
:1004A0000508190129059505750191029501750346
:1004B0009101C00011241FBECFEFDAE0DEBFCDBF37
:1004C00011E0A0E0B1E0EAE4F1E402C005900D9291
:1004D000AA38B107D9F722E0AAE8B1E001C01D921D
:1004E000A53AB207E1F70E9417120C948D200C94E4
:1004F000000081E0089581E008950E947B02089544
:1005000008950E9480020895A5E0B0E0EAE8F2E0D4
:100510000C94022049835A8330918D0189819A81FC
:10052000311119C0662399F0222389F00E94000935
:10053000182F682F89819A810E94DC0869817A814D
:10054000812F0E94860F2596E3E00C941E200E94C6
:10055000EE08182FF3CF0E94000969817A81F1CF4C
:10056000FC01262F408151816281738184810E9428
:100570008402089581E00895CF93DF93EC0160E059
:100580000E94B002BE010E948102DF91CF910895C6
:100590000E94C21008950E94C610089508950E94F6
:1005A0002B070E94CE022FEF84E39CE02150804075
:1005B0009040E1F700C0000008950E94CF020E9421
:1005C000ED1808950E94CF020E94FE1808950F931F
:1005D0001F93CF93DF938C0161E00E94B002EC0186
:1005E000B8010E947D02811106C080E0DF91CF91A9
:1005F0001F910F910895B801CE010E9473168823B0
:10060000A1F3B801CE010E94A814882371F3B801A8
:10061000CE010E94E515882341F3F80182818823E9
:1006200061F0CB35FDE5DF0701F158F4C115ECE5CC
:10063000DE0791F0CF3DDC4591F0C8010E947902C0
:10064000D5CFCD358DE5D80769F090F0C83ADD45B6
:10065000A1F70E94E202C9CF0E94DD02C6CF0E942C
:10066000C60DF7CF0E94000DE8CF0E940A0DE5CF1E
:100670000E940E0DE2CF0E941E180E94580308959A
:100680000E945C030E942318089508950E94450368
:10069000089581E008950E94490308950895CF9335
:1006A000C82F0E9446038C2F0E944B03CF910895C0
:1006B00080E00E944F0308950E94CF160E944F03CE
:1006C00008950E94CF1690918C01981721F0809385
:1006D0008C010E944F030895ABE0B0E0E2E7F3E045
:1006E0000C9403204F83588769877A878B87611121
:1006F0000E944B0C1E821D8285E0FE013796DE01B2
:10070000119601900D928A95E1F78C819D81892B3C
:1007100061F449815A816B817C818D819E810E9427
:10072000740B2B96E2E00C941F2089819A81892317
:100730008F3F79F3CE0101960E94BA028111E9CF71
:10074000F0CFFC01808191810E943A090895CF93F6
:10075000C82F8823C9F08238C9F40E94CF1681FDC2
:1007600013C089E30E94030C0E946C0C2FEF81EEF2
:1007700094E0215080409040E1F700C0000089E300
:100780000E940B0C0E946C0CCF9108958338A1F449
:100790000E94CF1680FDF8CF83E50E94030C0E94D3
:1007A0006C0C2FEF81EE94E0215080409040E1F7F7
:1007B00000C0000083E5E4CF8438A1F40E94CF1686
:1007C00082FDE2CF87E40E94030C0E946C0C2FEFA5
:1007D00081EE94E0215080409040E1F700C000009D
:1007E00087E4CECF8CEF8C0F813A90F46C2F809100
:1007F0000001909101010E944417882329F08C2F59
:100800000E940B0C0E946C0C8C2F0E94030CBACF20
:1008100080E28C0F883048F4C77081E001C0880FF7
:10082000CA95EAF70E942E0CADCFEBE5EC0FE33052
:1008300040F4F0E0EB5BFE4F808190E00E940417F3
:10084000A3CFE8E5EC0FE73150F4F0E0EE0FFF1F27
:10085000E95EFE4F808191810E941A1795CFCD3EAF
:1008600008F492CF8C2F0E949B120E946E138CCFA3
:10087000882309F455C0823879F40E94CF1681FF8D
:100880004FC089E30E94030C0E946C0C89E30E9414
:100890000B0C0E946C0C0895833859F40E94CF16FB
:1008A00080FF3EC083E50E94030C0E946C0C83E530
:1008B000EECF843859F40E94CF1682FF31C087E40E
:1008C0000E94030C0E946C0C87E4E1CF9CEF980F10
:1008D000913AE8F290E2980F983050F4877091E0E6
:1008E00001C0990F8A95EAF7892F0E94340CD1CF65
:1008F0009BE5980F933028F490E080E00E94041765
:10090000089598E5980F973128F490E080E00E94D0
:100910001A1708958D3E20F00E94F5120E946E1362
:1009200008951F93CF93DF93182FEB010E94A70325
:10093000209739F4812F0E943804DF91CF911F91C5
:1009400008958FE99FE00197F1F700C0000021971B
:10095000EFCF70E060E0893311F460E570E00E9451
:1009600091040895882321F00E942E0C0E946C0CA3
:100970000895882321F00E94340C0E946C0C089585
:10098000B0E0A0E0E6ECF4E00C94FC1F6C01D62F84
:10099000C72FFC011281F580F2949FE0F9220E949A
:1009A000240CE82E8823B9F0E12E1123A1F08C2F1E
:1009B000807F803421F080E28D0F8830D0F08091EC
:1009C000830282FF16C082E00E94CF0C0E94240C9A
:1009D00091E0E82EE926BC2EB2948FE0B822FBE02D
:1009E000FB1508F468C0EB2DF0E0E157FF4D0C94C7
:1009F000ED1FE12CF0CF0C2F0F70C07F11F002958E
:100A0000007F112399F0002359F080E28D0F883088
:100A100010F0D11107C0802F0E942E0C0E946C0C88
:100A20008D2F41C0802F0E943E0CF8CF8D2F0E9449
:100A30003804002309F43FC080E28D0F883010F0A5
:100A4000D11104C0802F0E94340C03C0802F0E945B
:100A5000440C0E946C0C2FC00C2F0F70C07FC03252
:100A600011F00295007FDD2381F0D13009F463C0DD
:100A7000112309F46DC0FF2009F463C0F6018581DC
:100A800080FFCECF8F7085835CC08091830282FD12
:100A900033C0112359F0002329F0802F0E942E0C1F
:100AA0000E946C0C80E00E94A70305C080E00E94B9
:100AB00038040111C7CFEB2DE850FF0B349720F419
:100AC0000E94CF160E944F03EE2089F00E94200C56
:100AD00080FD0DC0F60112820E941A0C0E94E407EC
:100AE000C6010E94EB060E941A0C0E940608CDB7B0
:100AF000DEB7E9E00C941820112389F0F11006C04C
:100B00000E944E0C802B0E94B204D5CF21E0F2123D
:100B1000F7CF0E944E0C802B0E94550CCCCFF110C9
:100B200006C00E94620C802F0E94B904C4CF31E03D
:100B3000F31609F2F6CF112331F085E08F1508F492
:100B4000BACF802FE0CF94E09F1508F4B4CFEBCF5D
:100B5000FF2049F3D93349F4FFEF27EE33E0F1509A
:100B600020403040E1F700C000008D2F0E94380483
:100B7000A2CF8C2F86958695837069F0813009F01D
:100B80009ACF8D2F9C2F9370111102C090E080E0BE
:100B90000E941A1790CF8D2F9C2F9370111102C0B5
:100BA00090E080E00E94041786CF8D2F112329F05A
:100BB0000E949B120E946E137ECF0E94F512FACF04
:100BC0008C2F837009F041C0111175CF4D2F4295C4
:100BD00046954770440F440F0D2F0F7010E030E022
:100BE00020E0042E04C0000F111F221F331F0A949F
:100BF000D2F760E070E0CB01D4FF0FC06FE070E08F
:100C000080E090E004C0660F771F881F991F4A9507
:100C1000D2F76095709580959095C695C695C370EE
:100C2000602B712B822B932BC23049F058F4C130CA
:100C300019F00E948F073FCF0E947C073CCF0E9493
:100C4000A20739CF0E94790736CF8695112311F07C
:100C50008C2F8170882309F42ECF4D2F4295469515
:100C60004770440F440F0D2F0F7010E030E020E06C
:100C7000042E04C0000F111F221F331F0A94D2F745
:100C800060E070E0CB01D4FF0FC06FE070E080E067
:100C900090E004C0660F771F881F991F4A95D2F70E
:100CA0006095709580959095C695C695C370602B9C
:100CB000712B822B932BC23049F058F4C13019F0BC
:100CC0000E945F08F8CE0E944C08F5CE0E94720880
:100CD000F2CE0E94BB07EFCECF70112329F08C2FEC
:100CE0000E94E4078D2F0FCF8D2F0E94B9048C2F07
:100CF0000E940608E0CED23F51F160F4D03FB9F037
:100D0000D13F81F0112309F449C0F11089CE8C2F15
:100D10008F7121C0D33F11F1D43FA1F7809183029D
:100D200082FD26C08C2F8F71112311F314C0112363
:100D300049F084E08F1508F4BECE8C2F8F710E948D
:100D40002A08B9CE95E09F1508F4B5CEF6CF8C2FC2
:100D50008F711111CDCF0E94E407ADCE112329F080
:100D60008C2F8F710E94CE07A6CE0E94C807A3CEFB
:100D7000112349F0CF718C2F0E94E40763E08C2F80
:100D80000E94B10C98CE81E00E94CF0CE1E0EF15FB
:100D900008F091CE82E00E94CF0C8DCEF110DACE19
:100DA0008C2F8F71A5CF0F931F93CF93DF93EC01FF
:100DB000688179818A810E9445098C010E94850899
:100DC0000E947807B801CE010E94C004DF91CF9144
:100DD0001F910F910895CF93DF93EC018B819C813C
:100DE000892B29F08881998189238F3F51F4DF91E4
:100DF000CF910895CE010E94D306CE010E94BC027D
:100E0000F6CFCE010E94E7028111F4CF0E94240C9C
:100E1000882369F38A81882351F38091830282FFBA
:100E2000E6CF82E00E94CF0CE2CF90E080E00E940B
:100E3000041790E080E00E941A170E944B0C0E9459
:100E40006C0C0E948A130E946E1308950E94130C6A
:100E50000E94150708950E943B0C0E9426070895E2
:100E600092959F70963091F058F4925F9F709230F7
:100E700058F4803F19F030F4883E30F481E0089552
:100E80009A5FF4CF843FD1F380E00895883EB0F3B9
:100E9000813FD1F7F3CFFC01808191810E943A0913
:100EA0000E9430070895A5E0B0E0E9E5F7E00C9472
:100EB00003202596E2E00C941F20A6E0B0E0E3E6D4
:100EC000F7E00C9403202696E2E00C941F2008958E
:100ED0000E94670708950E9468076093B0017093AD
:100EE000B1018093B2019093B3010E941507089558
:100EF00008950E946B0708950F931F930091B0010E
:100F00001091B1012091B2013091B301602B712B8E
:100F1000822B932B0E946B071F910F9108950F93C3
:100F20001F930091B0011091B1012091B201309155
:100F3000B30160237123822393230E946B071F91C7
:100F40000F9108950F931F930091B0011091B1017B
:100F50002091B2013091B301602771278227932736
:100F60000E946B071F910F9108950E9467070895D3
:100F70000E94B50708950E94B8076093AC01709372
:100F8000AD018093AE019093AF010E9415070895C3
:100F900060E070E0CB010E94BB0708950F931F93A0
:100FA00041E050E060E070E08A019B0104C0000F66
:100FB000111F221F331F8A95D2F7C901B8010E9461
:100FC000BB071F910F9108950F931F9341E050E0CD
:100FD00060E070E004C0440F551F661F771F8A95BC
:100FE000D2F78091AC019091AD01A091AE01B0918A
:100FF000AF018A019B01082B192B2A2B3B2BC9011E
:10100000B8010E94BB071F910F9108950F931F9382
:1010100041E050E060E070E004C0440F551F661FDF
:10102000771F8A95D2F7CB01BA01609570958095AC
:1010300090950091AC011091AD012091AE013091DD
:10104000AF0160237123822393230E94BB071F916A
:101050000F9108950F931F9341E050E060E070E01E
:1010600004C0440F551F661F771F8A95D2F78091E1
:10107000AC019091AD01A091AE01B091AF018A0198
:101080009B01082719272A273B27C901B8010E947D
:10109000BB071F910F9108950F931F930091AC010F
:1010A0001091AD012091AE013091AF01602B712BF9
:1010B000822B932B0E94BB071F910F9108950F93D2
:1010C0001F930091AC011091AD012091AE013091C0
:1010D000AF0160237123822393230E94BB071F91DA
:1010E0000F9108950F931F930091AC011091AD01E2
:1010F0002091AE013091AF0160277127822793279D
:101100000E94BB071F910F9108950895262F277005
:1011100091E001C0990F2A95EAF723E0769567954B
:101120002A95E1F725E0269FF001279FF00D112475
:10113000E40FF51F50E040E0682F70E08191DF017F
:1011400011979B01042E02C0369527950A94E2F769
:10115000217021952827292328272C934F5F5F4F43
:101160004530510559F70895A82FA77023E09695AB
:1011700087952A95E1F725E0289FF001299FF00D3A
:101180001124E60FF71F50E040E080E0219130E0AD
:101190000A2E02C0369527950A94E2F7217033276C
:1011A000042E01C0220F0A94EAF7822B4F5F5F4F93
:1011B0004530510559F70895262F943070F48C303E
:1011C00060F4682F70E08CE0989F600D711D112411
:1011D0004EE851E0822F0E9486080895292F94300E
:1011E00068F48C3058F490E06EE871E03CE0239FA6
:1011F000800D911D11240E94B408089580E0089587
:10120000B0E0A0E0E6E0F9E00C94FC1F8C01C09097
:10121000AC01D090AD01E090AE01F090AF018091B3
:10122000B0019091B101A091B201B091B301C82A6F
:10123000D92AEA2AFB2ACFE1D0E0BC2ED701C60189
:101240000C2E04C0B695A795979587950A94D2F76A
:1012500080FD09C0219788F7B12C8B2DCDB7DEB763
:10126000E9E00C941820B8018C2F0E94A10F01977F
:1012700089F3F3CFCF93DF93EC010E940009BE0105
:101280000E94A10FDF91CF9108951F93CF93DF9319
:10129000EB0190918D01992339F0CB010E943A091D
:1012A000DF91CF911F910895882369F0CB010E94AF
:1012B0000009182F682FCE010E94DC08BE01812F83
:1012C0000E94A10FEDCFCB010E94EE08182FF6CFA0
:1012D0001F93CF93DF93C091B40116E08091B501C5
:1012E0008C1304C0DF91CF911F910895D0E01C9F13
:1012F000F0011D9FF00D1124EA54FE4F40815181F1
:1013000062817381848195810E945D072196C770F7
:10131000E5CF4091E6015091E7016091E8017091BD
:10132000E9018091EA019091EB010E945D07089527
:101330001F93CF93DF938091EB01807F09F049C029
:101340008091E801882309F444C08091B401C091E0
:10135000B5016091E6017091E701A091E901B091BA
:10136000EA01D62FD72316E0C81799F190E010971D
:1013700011F0DF3F19F401968770F6CF189F9001A6
:10138000199F300D1124F901EA54FE4F4181471392
:10139000F2CF40814613EFCF42814111ECCF438120
:1013A00054814A1B5B0B483C510528F78091EB01A7
:1013B0008F7080618093EB01F901E554FE4F8081CD
:1013C0008F708061808386EE91E00E94EB060E9420
:1013D0006809DF91CF911F910895A1E1B0E0E3EF9B
:1013E000F9E00C94FB1F8C0185E0F801DE011D96ED
:1013F00001900D928A95E1F7F801E28086EEC82E01
:1014000081E0D82E6091E9017091EA0161157105C2
:1014100009F44EC19091E6012091E701892F8223C2
:101420008F3F09F445C140815181A380B480F09081
:10143000E801F501E61BF70BFF2009F4EAC08091F3
:10144000EB01382F307FE83CF10508F0A3C03111E3
:101450006DC0FE2C251316C0941314C0E11012C0E9
:101460008F7080618093EB010E948909C6010E9400
:10147000EB068091EB01F80185838F2D6196EAE000
:101480000C941720A114B10429F0842F85238F3FD9
:1014900009F027C180E0F82FF170DF2E80FF3CC0FB
:1014A0008091B4012091B50136E0821315C04D87BB
:1014B0005E878D859E850E943A09292F22952F707F
:1014C0002230F0F0243018F59F70F1F0F80195818A
:1014D000907FD1F4D12C1EC090E0389FF001399F4D
:1014E000F00D1124EA54FE4F6181651306C060813E
:1014F000641303C06281E6120FC001968770D5CFD6
:101500009F7011F0882331F3805E883018F3C80192
:101510000E94EB06FD2CB1CFEE2009F4AECF8091F6
:10152000EB0181608093EB01F12CA7CF251306C05E
:10153000941304C0F801EE2009F487C0C8010E948A
:101540004B07882319F1EE2009F18091EB018032DD
:1015500070F02091E6013091E70138872F831986DA
:10156000BB86AA868C87CE0107960E94EB0686E092
:10157000F801A6EEB1E001900D928A95E1F70E9484
:1015800098090E948909FF24F39477CFC8010E942B
:10159000EB06F9CF311113C07A2DB98AA88A6E2DC6
:1015A00089890E94530786EE91E00E94EB0686E04F
:1015B000F60111928A95E9F70E948909B5CF2513A2
:1015C0000FC094130DC0E1100BC0F8018583C80152
:1015D0000E94EB0686E0F60111928A95E9F74DCF5D
:1015E000C8010E944B07882389F2EE2079F280918E
:1015F000EB01803208F4BBCF2091E6013091E70186
:101600003A8329831B82BD82AC828E83CE010196F0
:10161000ACCFE83CF10508F03EC0FE2CEE2009F40A
:10162000B5CF25132AC0941328C08091EB0180FD0B
:101630001BC0982F907FC1F0F8018583903F31F057
:10164000982F907F905F8F70892B8583C8010E94AF
:10165000EB0686E0F801A6EEB1E001900D928A95C6
:10166000E1F70E94890909CF86E0F801A6EEB1E012
:1016700001900D928A95E1F700CFC8010E944B07B7
:10168000811175CF8091EB0181608093EB01C801DE
:101690000E94EB06F2CE7A2DB98AA88A6E2D89892E
:1016A0000E94530786E0F60111928A95E9F7D9CF97
:1016B000EE2009F46BCFC8010E944B07F82E882357
:1016C00009F464CF86E0F801A6EEB1E001900D9236
:1016D0008A95E1F786EE91E00E94A1030E949809A5
:1016E000C0CF81E08E25D7CEACE0B0E0EAE7FBE0EA
:1016F0000C9402204F83588769877A878B879C8751
:10170000CE0107960E94ED09882369F08A859B85A2
:10171000892B39F04F815885842F85238F3F09F01D
:101720006BC016E05FC086E0FE013796DE011196C1
:1017300001900D928A95E1F78A859B85892B89F323
:1017400088859F8189238F3F61F32091B50130E027
:10175000C9010196877099274091B401481719066D
:1017600071F40E942B071092B5011092B40186E02B
:10177000E6EEF1E0DF011D928A95E9F7D2CF96E01F
:10178000929FD001939FB00D1124AA54BE4FFE0129
:10179000319601900D929A95E1F78093B5010E94E0
:1017A0006809BFCF819FC00111248A549E4F0E94B7
:1017B000ED098823E9F0E091B4011E9FF0011124A6
:1017C000EA54FE4F40815181628173818481958109
:1017D0000E945D078091B40190E00196877099277F
:1017E0008093B4018091B4019091B5018913DACF4F
:1017F0002C96E3E00C941E2069857A858B859C8568
:101800000E945D078ECF682F8091000190910101A9
:101810000E94C4170895682F8091000190910101E2
:101820000E94D217089580910001909101010E94B9
:10183000E017089580910C0285958595859508950A
:1018400080910C028770089590910C02977081E04E
:1018500009F480E0089580912F02089590912F025D
:10186000892B80932F020895809590912F029823C1
:1018700090932F02089510922F02089590912E02B6
:10188000892B80932E020895809590912E029823A3
:1018900090932E02089510922E02089580910D02C9
:1018A000089508950E94510C08959091830292FF2B
:1018B00008C090910D02981721F080930D020E94AC
:1018C000520C089580910D02882329F010920D0288
:1018D00080E00E94520C0895CF93DF93E0910001C5
:1018E000F091010180912F028083E0910001F0913D
:1018F0000101808190912E02892B808390910D02AD
:10190000992381F0E0910001F09101018081892B00
:10191000808380910001909101010E943017811114
:101920000E94620CC0910001D091010140E250E0A0
:101930006CEE71E0CE010E943E20892B59F080E2CE
:10194000FE01ACEEB1E001900D928A95E1F7CE0177
:101950000E94DC16DF91CF91089508950E94AD0C8E
:1019600008959091830292FF11C098E0899F9001A1
:101970001124622B60930C020E94E40780910C02F8
:101980008595859585950E94AE0C08950E94E40783
:10199000089510920C0280E00E94AE0C0895909180
:1019A0000C028095892380930C02282F277091F4D4
:1019B000282F082E000C330B9217130659F0909124
:1019C000830292FF07C08595859585950E9406083C
:1019D0000E94C90C08959091830292FB222720F95E
:1019E000281769F080FB92F990938302809182021C
:1019F000909183020E943C0D82E00E94CF0C0895DA
:101A00008091830282FB882780F991E089270E94D8
:101A1000EB0C089581E00E94EB0C089580E00E9499
:101A2000EB0C08956FEF7FEF90E080E00E9477204D
:101A3000089590E080E00E94532021E0883E9E4F70
:101A400009F020E0822F089582E090E00E944B2070
:101A5000089583E090E00E944B200895CF9384E0A6
:101A600090E00E944B20C82F82E290E00E944B2021
:101A7000982F8C2FCF910895CF93C92F682F84E092
:101A800090E00E9459206C2F82E290E00E94592041
:101A9000CF910895AB01BC018FE090E00E946B20D4
:101AA0000895AB01BC0183E190E00E946B20089592
:101AB00060E070E0CB010E94510D089560E070E09D
:101AC000CB010E944A0D0E94580D089568EE7EEFEA
:101AD00090E080E00E94772060E082E090E00E9449
:101AE000592060E083E090E00E9459201092B001FC
:101AF0001092B1011092B2011092B30160E084E043
:101B000090E00E94592064E082E290E00E94592017
:101B100060E085E090E00E94592060E086E090E07F
:101B20000E9459206FEF87E090E00E94592040E02A
:101B300050E0BA0188E090E00E946B2060E08DE008
:101B400090E00E94592040E050E0BA0188E190E026
:101B50000E946B2060E087E190E00E94592040E005
:101B600050E0BA018CE190E00E946B2070E060E0F0
:101B700080E290E00E94772040E050E0BA0188E1E6
:101B800090E00E946B200E945E0D08950E94660DF9
:101B90000895682F8EE090E00E94592008950E94D9
:101BA000AE1860933C0270933D0280933E02909386
:101BB0003F02609338027093390280933A02909307
:101BC0003B020895089508950E94E30D0895089535
:101BD0000E94E70D089580E890E10E94C5160E94DA
:101BE000E20D0E94E40D089581E008950E94F40D35
:101BF0000895089508950E94F90D0E94FA0D089520
:101C00000E949C100E944E0308950E9499180E9401
:101C10007E110E94000E0E94E80D0895AAE0B0E037
:101C2000E4E1FEE00C94F61F0E949411A82E8111AD
:101C30000E94CF0D30E3832E32E0932E10E000E0BF
:101C4000502E802F0E94C9106C01F4016190719098
:101C50004F016816790609F443C08091400281FD66
:101C60000E94D210B12CEE24E394F12C6C247D243C
:101C7000C3018E219F21892B69F10E94F60D8823D3
:101C8000B1F0BE825F82CE20DF2081E0C114D1049A
:101C900009F480E088870E94A2188160782F9A87D3
:101CA00089874E815F8168858A850E946C03000F59
:101CB000111FF801E05DFD4F80819181E826F92632
:101CC000F182E08281E0A11001C080E02A96EFE07D
:101CD0000C941220B394EE0CFF1CFCE0BF12C8CF92
:101CE0000F5F1F4F0430110509F0AACF8FEF8983D2
:101CF0008A831B820E94A2188160782F9D838C8327
:101D000049815A816B818D810E946C03DBCF0E94D7
:101D10000E0E0E94AC130E9461030895CF93DF93CF
:101D20000E94A60FEC01811521E5920708F042C040
:101D3000811530E5930708F09DC0883E910530F588
:101D4000803E910508F092C0883A910588F4853A62
:101D5000910508F084C08130910509F487C000978F
:101D600009F484C0049708F081C0D0E0C0E07EC0D0
:101D70008F3B9105D0F7C85AD0E0CC0FDD1FC85B70
:101D8000DE4F0990D881C02DD46470C08115904277
:101D900050F4C11581E0D80708F068C0CD3ED105E8
:101DA00020F3D06563C0C11590E4D907F0F2DF706D
:101DB000D06A5CC0811525E5920700F5811534E5F0
:101DC000930708F08BC0811543E5940708F073C0B2
:101DD000C11582E5D80708F469C0CE018370992740
:101DE00021E030E002C0220F331F8A95E2F7C6954A
:101DF000C69580E2C89FE001112454C0C11599E541
:101E0000D907A8F4C11528E5D20708F06CC0C115A0
:101E100036E5D30708F0A9CF8C2F0E943D10C82FBC
:101E2000D0E0DC2FCC27CC27DF71D0621FC0C115DA
:101E30004AE5D40708F45CC0CE0190568115904263
:101E400008F093CF8D2F8F710E943D1090E0982F56
:101E5000882788279F719C012C2BE901E6CFC55A62
:101E6000D0E0CA58DE4FC881D0E0D064CE01DF9107
:101E7000CF910895E4E096958795EA95E1F7837010
:101E80002C2F26952695237040E2249F9001112443
:101E9000382B8C2F8370C1E0D0E002C0CC0FDD1F47
:101EA0008A95E2F7C22BD32BDC68E0CFDC2FCC275E
:101EB000C16FD06ADBCF8370992721E030E002C088
:101EC000220F331F8A95E2F7C695C69590E2C99F07
:101ED000E0011124C22BD32BDA68C8CFD82FCC272E
:101EE000C46FD06AC3CFDC2FCC27C06FD06ABECFFF
:101EF0008C2F8F700E943D1034E0D695C7953A958F
:101F0000E1F7CF709C2FEC01D069B0CF972F7430E0
:101F1000A8F46C3098F470E02CE0929F600D711D75
:101F20001124FB0190E3899FE00DF11D1124EE0FB8
:101F3000FF1FE455FF4F85919491089580E090E054
:101F400008950E94860F0E948E0E08958238910592
:101F5000B1F1B0F48133910509F475C048F48932C8
:101F6000910509F469C08A32910509F473C0089596
:101F70008533910509F459C08933910501F108951C
:101F8000833E9105A9F138F4803E9105F9F0823E37
:101F9000910549F10895863E9105A9F1873E910585
:101FA000C9F1843E910519F52091830221FF1FC0DC
:101FB0008091820284FD14C087EE90E00895209104
:101FC00082022370A1F080EE90E0089520918202B9
:101FD00020FD47C03091830230FF09C024FF44C078
:101FE00090E080E004C02091820222FDF7CF0895A6
:101FF0002091820222FD3BC03091830230FDE3CF6D
:1020000024FFF5CFEDCF2091820223FFF0CF24FDF6
:10201000E7CFD2CF2091820223FD2CC030918302E2
:1020200031FFEECF84EE90E008952091820225FFEB
:10203000DECF89E290E008952091820225FFD7CF7C
:1020400085E390E008952091820226FFD0CF8AE2B6
:1020500090E008952091820226FFC9CF81E390E0AD
:10206000089589E390E0089583EE90E0089582EE6C
:1020700090E0089586EE90E008959091820292FF9C
:1020800006C0282F28712830F9F4877F846093FFD9
:1020900006C0282F28712831F1F4877E84612091B1
:1020A000830220FF06C0382F38713830D9F4877F7B
:1020B000816021FF06C0282F28712831D1F4877E46
:1020C000816194FD877E0895282F24712430F9F6CC
:1020D0008B7F8860DCCF282F2471243101F78B7E21
:1020E0008861DDCF382F3171313019F78E7F8860EC
:1020F000E0CF282F2171213121F78E7E8861E1CF39
:1021000080E008950E94120D08950E9494118FE3BB
:102110009CE90197F1F700C000000E94941180E053
:102120000E94C91080FF04C00E9482100E94ED1816
:1021300008950E94851008950E94190D811102C012
:102140000E94C60D0E94240D809340020E942E0D15
:1021500090938302809382020E9499100E94290D1D
:10216000682F70E090E080E00E9479076091AC01F8
:102170007091AD018091AE019091AF010E94B807BE
:10218000089508950E94C110089508950E94C510F1
:102190000895E82FF0E0EE0FFF1FE457FD4F808118
:1021A00091810895089580EA8A95F1F7089500C015
:1021B00008950E94D3100895F894E82FE295EF70E7
:1021C000F0E031A1282F2F7081E090E001C0880F4E
:1021D0002A95EAF7982F9095932391A392A1892BA2
:1021E00082A378940895CF93DF9386EF0E94DC104A
:1021F00083E30E94DC1082E30E94DC1086E30E94ED
:10220000DC10C9E7D1E089918F3F11F00E94DC100A
:1022100081E0C538D807B9F7DF91CF910895AF9223
:10222000BF92DF92EF92FF920F931F93CF93DF93B2
:102230008C01D62EC62FD0E0CE018B579E4F7C014D
:10224000FC0120812F3F09F44CC0F894E22FE29565
:10225000EF70F0E031A12F7081E090E001C0880FB5
:102260002A95EAF7932F982B91A392A18095892321
:1022700082A378940E94D710E9E7F1E041E050E0B2
:10228000B12CA12C21912F3FB1F1A22FA295AF70BB
:10229000B0E090968C9190E02F7002C09595879554
:1022A0002A95E2F780FD27C0CA01A82AB92A440F5F
:1022B000551F81E0E538F80729F7F70180818F3F46
:1022C00011F00E94DC1061E0A114B10409F460E097
:1022D0008D2D0E94D910CC0FDD1FC00FD11FB982E8
:1022E000A882DF91CF911F910F91FF90EF90DF9027
:1022F000BF90AF90089590E080E0D7CF0E94F31098
:1023000088E0ECE8F2E0DF01982F1D929A95E9F75A
:10231000E4E8F2E0DF011D928A95E9F784E00E948B
:10232000D0110E94C8020895A8E0B0E0EAE9F1E106
:102330000C9400208E010F5F1F4F88E0F80111926E
:102340008A95E9F7F12C6F2DC8010E940F11F394C3
:10235000F4E0FF12F8CF48E050E0B80184E892E0E2
:102360000E943E20FF24F394009709F4F12C892B5E
:1023700041F088E0F801A4E8B2E001900D928A955E
:10238000E1F72F2D44E06CE872E084E892E00E94CF
:10239000D1110E94CB028F2D2896E5E00C941C20D1
:1023A0000895FF920F931F93CF93DF93F82E092F79
:1023B000162FD72FC42F222349F081E080934302A8
:1023C0000E94A2189093420280934102809143029E
:1023D0008823A1F080914102909142020E94BA1894
:1023E000059760F0EF2DF02FA12FBD2F90E080E03A
:1023F000D0E08C179D073CF010924302CDB7DEB7BA
:10240000E5E00C941C20219131912D933D93019690
:10241000F0CF0E94B41A0E94050E0E94C11A0895BE
:102420000E94C61A0E94870E0E94E01A08950E9418
:102430003B180E949A1A0E94EB0D0E9409120E94FA
:1024400010120E94FB0DFBCF80914A0280FF0DC04D
:102450006091070170E0660F771F6038710570F5B5
:102460006115710569F1862F089581FF07C060919C
:10247000070184E0689FB0011124EFCF609107014C
:1024800082FD0AC0809149028823A9F020910601AB
:1024900060910701821710F088E0ECCF869FC001A1
:1024A000112433E0880F991F3A95E1F7622F70E00D
:1024B0000E94D91FD2CF68E070E0D5CF8FE7089592
:1024C00081E0089580914A0280FF0CC06091030171
:1024D00070E075956795759567956115710549F17A
:1024E000862F089581FF06C06091030170E0759505
:1024F0006795F3CF6091030182FD0BC09091480274
:102500009923A1F06091020180910301961738F0A0
:10251000682F70E06038710500F38FE70895899F98
:10252000C001112470E00E94D91FF4CF61E070E077
:10253000D7CF81E008958D3E31F40E942412819519
:1025400080934E0208958E3E19F40E942412F8CF13
:102550008F3E31F40E942412819580934D0208959C
:10256000803F19F40E942412F8CF893F29F40E9479
:10257000621280934F0208958A3F21F40E946212F2
:102580008195F7CF8B3F31F40E9462128195809341
:10259000500208958C3F19F40E946212F8CF9FE018
:1025A000980F983070F4815F990B21E030E001C002
:1025B000220F8A95EAF780914C02822B80934C027D
:1025C00008958D3F31F480914A02816080934A02E0
:1025D00008958E3F21F480914A028260F7CF8F3FA9
:1025E000B9F780914A028460F1CF40914D028D3E4F
:1025F00059F480914E0287FF0DC010924E02411196
:102600000BC01092490208C08E3E81F480914E02A8
:1026100018169CF3442381F080914F029091500250
:10262000892B09F05AC01092480208958F3E49F450
:1026300047FFF0CF10924D0280914E028111ECCFF6
:10264000E0CF803F19F41416ACF3E4CF90914F0221
:10265000893F29F41916F4F610924F02DBCF8A3F16
:1026600019F497FFD7CFF8CF909150028B3F29F400
:1026700097FFD0CF10925002CDCF8C3F19F419168E
:10268000CCF3C8CF9FE0980F983090F4815F990BFE
:1026900021E030E0B90102C0660F771F8A95E2F7AA
:1026A000CB01809590914C02892380934C02B2CF4C
:1026B0008D3F31F480914A028E7F80934A02AACFE7
:1026C0008E3F21F480914A028D7FF7CF8F3F09F032
:1026D000A1CF80914A028B7FF0CF08950E94A2186B
:1026E0009C0190914D0280914E02982B21F03093E5
:1026F00047022093460290914F0280915002982BFE
:1027000021F030934502209344028BE492E00E9432
:10271000F616089586E0EBE4F2E0DF011D928A955B
:10272000E9F7109249021092480210924A02089565
:10273000FC01828181110EC0838181110BC08481D3
:10274000811108C091E08581811101C090E0892F3D
:102750008170089581E0FCCFA6E0B0E0E2EBF3E108
:102760000C94022086E0EBE4F2E0DE011196019089
:102770000D928A95E1F710924D0210924E0210923E
:102780004F02109250028B819C81892B89F080919D
:102790004602909147020E94BA18AC0190914902FA
:1027A0009923C9F1809108018417150608F440C0E7
:1027B0008D819E81892B91F08091440290914502F8
:1027C0000E94BA18AC0190914802992309F471C093
:1027D000809104018417150608F479C0BE016F5F6B
:1027E0007F4F8BE492E00E94F217811105C08BE4C9
:1027F00092E00E94981381110E946E1386E0FE0100
:102800003196ABE4B2E001900D928A95E1F72696FD
:10281000E3E00C941E20209109018AE0289F90019A
:1028200011242417350720F69F5F9093490202C0B8
:102830009F3FD1F71B81112359F00E9424129FEF73
:1028400011160CF491E0899F802D112480934D0284
:102850001C81112359F00E9424129FEF11160CF4D1
:1028600091E0899F802D112480934E0230914D027A
:10287000332309F49DCF20914E02222309F498CFEF
:1028800045EB3403C0011124992359F090934D0274
:1028900045EB240390011124332339F030934E0289
:1028A00087CF81E080934D02F3CF81E080934E0289
:1028B0007FCF209105018AE0289F900111242417E1
:1028C000350708F08BCF9F5F9093480202C09F3F6F
:1028D000D1F71D81112359F00E9462129FEF11164A
:1028E0000CF491E0899F802D112480934F021E816A
:1028F000112359F00E9462129FEF11160CF491E01F
:10290000899F802D11248093500230914F023323F0
:1029100009F464CF20915002222309F45FCF45EBE4
:102920003403C0011124992359F090934F0245EBD1
:10293000240390011124332339F0309350024ECFF9
:1029400081E080934F02F3CF81E08093500246CF25
:10295000CF93DF93EC01FB018281882309F433C11B
:10296000C430FDE5DF07C0F5CB3F9CE5D90730F467
:102970009E0122503C4524313105B0F50E942E0DB8
:102980009093830280938202C1318CE5D80709F4C9
:10299000EEC008F069C0C930ECE5DE0709F4D5C027
:1029A000C8F5C5308CE5D80709F4C7C000F5C330B9
:1029B000ECE5DE0709F4B9C008F0BBC0C230DC4565
:1029C00009F4ADC080918202909183020E943C0D77
:1029D0000E942B0780E008C0C236EDE5DE0771F2E9
:1029E000C63AFDE5DF0751F2DF91CF91089580915E
:1029F00082028062C7309CE5D90709F493C08091B8
:102A000082028061C830DC4508F48CC0809182026B
:102A1000806488C0809182028B7FCD30FCE5DF0727
:102A200009F480C098F4809182028E7FCB309CE5BF
:102A3000D90709F477C0809182028C60CC30DC45E4
:102A400008F470C0809182028D7F6CC080918202F8
:102A50008F7ECF30FCE5DF0709F464C008F47BC04B
:102A6000809182028F7D5EC0CE3F9CE5D90709F43C
:102A70007AC050F5C531FCE5DF0709F486C098F44B
:102A800080918202837FC3319CE5D90709F44AC053
:102A900008F471C00E942B0790918202892F97FB46
:102AA00087F980583FC0CC3FFCE5DF0709F449C0F7
:102AB00008F055C0809183028160CB3FDC4509F06E
:102AC00081CF809383027ECFC230EDE5DE0709F42B
:102AD00068C0A8F4C1158DE5D80709F452C08091EB
:102AE00083028360C130DD4560F380918302982FBB
:102AF000909591708E7F892B90FB81F9E2CFC23641
:102B0000EDE5DE0709F451C0C63AFDE5DF0709F43B
:102B100053C0C330DD4509F055CF80E043C08091FC
:102B200082028160809382024DCF80918202826016
:102B3000F9CF809182028460F5CF80918202886013
:102B4000F1CF809183028260BCCF0E942B078091DD
:102B500082028068E7CF80918202877FE3CF8091F5
:102B600083028E7FAECF809183028D7FAACF80912A
:102B700082028F7BD7CF0E942B07809182028F77B2
:102B8000D1CF809183028C7F9CCF8091820282FB87
:102B9000992790F921E0922790FB82F990FB83F925
:102BA000C1CF81E00E94C90D0DCF90918202892F83
:102BB0008F7E94FF8061B6CF90918202892F8E7FA5
:102BC00090FF8160AFCF81E00FCFCF93DF93EB0118
:102BD00086319C4511F50E942B0C9A81992399F01E
:102BE0008A7A91E009F490E090935102811109C032
:102BF00089E20E94030C0E946C0C80E0DF91CF916F
:102C0000089585E3F6CF80915102811104C089E2D5
:102C10000E940B0CF0CF85E3FBCF81E0EFCF0F9349
:102C20001F93CF93DF93C42FD22FFC01828188237F
:102C3000C9F0409354020E94A218909353028093CB
:102C4000520280E28C0F883040F4C77081E001C0EE
:102C5000880FCA95EAF70E94B204DF91CF911F91C5
:102C60000F91089510915402141332C080915202B2
:102C7000909153020E94BA18883C910548F5C0E231
:102C8000CD0F1D17B9F080E2810F883040F4177026
:102C900081E001C0880F1A95EAF70E94B904C83094
:102CA00048F481E09D2F977001C0880F9A95EAF74C
:102CB0000E94B204802F0E94A904C83070F6D77019
:102CC00081E001C0880FDA95EAF70E94B904C5CF08
:102CD00080E28C0F883008F6C77081E001C0880F51
:102CE000CA95EAF7F2CF0F939C01CB01243F4CE544
:102CF000340759F1A8F4293DFCE53F0701F12A3DCD
:102D00004CE53407D1F1283D3C4591F406E221EE33
:102D100041EE68ED7CE50E940F1680E00F9108956A
:102D2000263FFCE53F07E9F0B0F0273F3C45F9F0CE
:102D3000FC018281882339F110925402EFCF07E21F
:102D400025EE45EE69ED7CE5E6CF06E221EE40EEAC
:102D500064EF7CE5E0CF07E225EE44EE65EF7CE52D
:102D6000DACF06E221EE42EE66EF7CE5D4CF07E251
:102D700025EE46EE67EF7CE5CECF08E221E045EE9A
:102D80006AED7CE5C8CF81E0C9CF90938B01809339
:102D90008A01089590935A02809359020895E09110
:102DA0005902F0915A02309729F00190F081E02DFC
:102DB0000995089580E00895E0915902F0915A0232
:102DC000309799F020911601222359F02091820228
:102DD00027FF07C0DC012C9111962C93119726E058
:102DE0002C930280F381E02D09950895E09159021A
:102DF000F0915A02309739F022E0DC012C930480E4
:102E0000F581E02D099508952091570230915802DF
:102E10002817390771F09093580280935702E09178
:102E20005902F0915A02309721F00680F781E02D87
:102E300009950895209155023091560228173907B7
:102E400071F09093560280935502E0915902F091EF
:102E50005A02309721F00084F185E02D09950895FC
:102E6000FC01329680911601882321F08091820224
:102E70009EE187FF96E080E0915008F4089521914B
:102E80002223D1F38F5FF8CF662301F12091160141
:102E90002223F1F02091820227FF1AC0462F469587
:102EA000469546954E3190F4677021E030E002C0BF
:102EB000220F331F6A95E2F7840F911DFC01828176
:102EC00090E02823392381E0232B69F480E00895E2
:102ED000FC01329608962191261721F0E817F90790
:102EE000D1F7F4CF81E008959C01FC0132969FEF69
:102EF00080E04191461751F09F3F19F4411101C004
:102F0000982F8F5F8630A9F79F3F09F40895290F06
:102F1000311D97FD3A95F90162830895FC013296BF
:102F200008962191261303C0DF0111971C92E81720
:102F3000F907B9F70895E62FE695E695E695EE319F
:102F400068F4E80FF92FF11D677021E030E001C04F
:102F5000220F6A95EAF78281822B82830895E62FF9
:102F6000E695E695E695EE3170F4E80FF92FF11D40
:102F7000677021E030E001C0220F6A95EAF72095E2
:102F8000828128232283089520911601222339F07B
:102F90002091820227FF03C00E949B1708950E9480
:102FA0007417089520911601222339F0209182028E
:102FB00027FF03C00E94AF1708950E948E1708953F
:102FC000FC01329680911601882351F08091820293
:102FD00087FF06C08EE1DF011D928A95E9F708950B
:102FE00086E0F9CF46E050E00E943E2021E0892BA8
:102FF00009F420E0822F089508950E94FC17089597
:10300000811106C081E080935B020E94FD17089544
:1030100082E0F9CF83E080935B020E94FD17089560
:103020000E940018089581E080935B020E94FD17C2
:1030300008950E9413180895089508950E941D1878
:103040000895089508950E941C180895CF930E9432
:1030500021180E9494110E942218C0E08C2F0E9417
:10306000C910892B31F4CF5FC430C1F780E0CF9114
:10307000089581E0FCCF85B7806885BF85B78068FB
:1030800085BF08951F921FB61F9211248F939F939F
:10309000AF93BF9380915C02811113C08091940221
:1030A00090919502A0919602B09197024196A11D30
:1030B000B11D8093940290939502A0939602B093D1
:1030C0009702BF91AF919F918F911F901FBE1F904C
:1030D000189580919C02843031F10E943B0310923C
:1030E0005C0288E190E020E40FB6F894A895809304
:1030F00060000FBE2093600083B7817F846083BF30
:1031000083B7816083BF7894889583B78E7F83BFB0
:103110000FB6F894A8958091600088618093600054
:10312000109260000FBE08950E942B070E9440037A
:10313000089582E084BD93E095BD9AEF97BD80939A
:103140006E0008952FB7F8948091940290919502A3
:10315000A0919602B09197022FBF08952FB7F894CF
:1031600060919402709195028091960290919702DD
:103170002FBF08959C014FB7F894809194029091CD
:103180009502A0919602B09197024FBF821B930BBC
:10319000089578941F921FB61F9211248F939F93C6
:1031A000AF93BF938091940290919502A091960263
:1031B000B09197020196A11DB11D80939402909346
:1031C0009502A0939602B0939702BF91AF919F9101
:1031D0008F911F901FBE1F90189587E797E79093D8
:1031E00001088093000888E19AE00FB6F894A8954A
:1031F000809360000FBE90936000FFCF88E19AE05B
:103200000FB6F894A895809360000FBE909360006D
:10321000FFCF80918002089508959C0182E0809301
:10322000E9009FEF8091E800915085FD06C085ED93
:103230008A95F1F700009111F5CF8091E80085FFA4
:103240000CC050E040E066E070E0C9010E94521BF3
:103250008091E8008E778093E8000895CF93DF9304
:10326000EC01809116018823B1F18091820287FFE1
:1032700032C060E282E08093E9008FEF9091E80035
:10328000815095FD06C095ED9A95F1F700008111EA
:10329000F5CF8091E80085FF1BC08091160170E09A
:1032A00050E040E0811104C050E040E068E070E090
:1032B000CE010E94521B8091E8008E778093E80037
:1032C00080E2FE01A0E6B2E001900D928A95E1F75E
:1032D000DF91CF91089568E081E0CDCF80935D02CA
:1032E00070935F0260935E0280919C02843001F5CE
:1032F00082E08093E9008FEF9091E800815095FD86
:1033000006C095ED9A95F1F700008111F5CF8091F7
:10331000E80085FF0DC050E040E063E070E08DE51F
:1033200092E00E94521B8091E8008E778093E80023
:103330000895BC0184E00E946E190895BC0183E0E9
:103340000E946E19089580919B02811109C00E940C
:10335000E21C0E943F1D8091E20084608093E200A5
:10336000089510929B0208950E9413180895609189
:10337000980281E0611101C080E00E940A1808955E
:1033800090919C0281E0943009F080E06091980275
:103390000E941018089542E061EC81E00E945E1CDA
:1033A00042E261EC82E00E945E1C90919C0281E00E
:1033B000943009F080E0609198020E94001808950E
:1033C00080919E02833009F461C030F48130D1F1E4
:1033D000823009F49EC008958A3009F48AC08B3087
:1033E00009F46FC0893009F050C080919D0281328C
:1033F00009F04BC08091A1029091A202029708F0BF
:1034000044C08091E800877F8093E8008091E800C5
:1034100082FF37C09091F3008091F200029731F45F
:103420008091F100813011F0863021F48091F1001B
:10343000809380028091E8008B778093E8000E945F
:10344000921C23C080919D02813AF9F48091E8009A
:10345000877F8093E8008091A1029091A202892B3E
:1034600061F460E280E692E070E00E94A11B80912E
:10347000E8008B778093E800089560E090E080E0BA
:10348000F3CF80919C028111C1CF089580919D025C
:10349000813AD9F78091A1029091A202892BA9F7D4
:1034A0008091E800877F8093E8008091E80080FFAA
:1034B000FCCF809116018093F1008091E8008E7717
:1034C000BCCF80919D02813201F78091A102909141
:1034D000A202892BD1F68091E800877F8093E800D3
:1034E0000E94921C80919F02809316010E942B07DC
:1034F000089580919D02813241F68091E800877F96
:103500008093E8000E94921C8091A0028093810227
:10351000089580919D02813A09F0B7CF8091E8002B
:10352000877F8093E8008091E80080FFFCCF809146
:103530008102C1CF84B7877F84BF0FB6F894A89566
:1035400080916000886180936000109260000FBEDF
:1035500080E890E00FB6F89480936100909361004A
:103560000FBE0E94191808950E94E21C0E943F1D80
:10357000E2EEF0E080818460808378940E94BE1F38
:1035800008958AE091E00E94CA16089580919C02F5
:10359000853031F480919C02853019F00E94941896
:1035A00008950E94691880919A02882399F30E94D5
:1035B0002618882379F30E943C1B0E942B07EACF30
:1035C00008950E94E41A0895292F332723303105E6
:1035D00019F168F42130310509F444C02230310575
:1035E00009F445C090E080E030E020E025C02132C1
:1035F000310549F122323105A9F780E490E023E753
:1036000034E061157105C1F086EB90E02DEB33E0FD
:103610006130710589F0E6CF99278130910581F0FD
:10362000009729F00297F1F6ECE4F3E002C0ECE633
:10363000F3E0849190E09F01FA01318320830895A3
:10364000ECE5F3E0F6CF89E090E022E833E06115A5
:10365000710591F389E090E02BE933E06130710569
:1036600059F3C0CF82E190E02BEA33E0E5CF8BE362
:1036700090E020E733E0E0CF80E189BD82E189BDC1
:1036800009B400FEFDCF8091D8008F7D8093D800D3
:103690008091E00082608093E0008091E00081FDF5
:1036A000FCCF0895AF92BF92CF92DF92FF920F931B
:1036B0001F93CF93DF936C01EB018A010E94B11C31
:1036C000F82E811123C00115110539F0F801808110
:1036D0009181C81BD90BC80ED91EB12CA12C2097E3
:1036E000A9F08091E80085FD22C08091E8008E77E6
:1036F0008093E80001151105A1F0F8018081918106
:10370000A80EB91EB182A08285E0F82E8F2DDF9120
:10371000CF911F910F91FF90DF90CF90BF90AF900E
:1037200008950E94B11C8823D1F2F82EEFCFF60144
:1037300081916F018093F1002197FFEFAF1ABF0ACB
:10374000CECFFC018091A3029091A4028617970727
:10375000A0F06115710529F49091E8009E7790938F
:10376000E80090E06115710551F4911108C0809155
:10377000E80082FF34C080E00895BC01F2CF809160
:103780009C028823C1F18530C1F18091E80083FD5E
:1037900030C08091E80082FDEACF8091E80080FF90
:1037A000E1CF8091F3002091F200382F611571056F
:1037B00019F02830310558F091E02830310509F032
:1037C00090E02091E8002E772093E800CBCF819104
:1037D0008093F100615071092F5F3F4FE7CF8091D7
:1037E0009C02882341F0853041F08091E80083FFFE
:1037F000BECF81E0089582E0089583E00895FC0142
:103800008091A3029091A40286179707A0F06115FA
:10381000710529F48091E8008E778093E80090E0AC
:103820006115710551F4911108C08091E80082FF83
:1038300035C080E00895BC01F2CF80919C028823BE
:10384000C9F18530C9F18091E80083FD31C08091D4
:10385000E80082FDEACF8091E80080FFE1CF80910F
:10386000F3002091F200382F6115710519F028300E
:10387000310558F091E02830310509F090E0809151
:10388000E8008E778093E800CBCF84918093F1009D
:103890003196615071092F5F3F4FE6CF80919C02B6
:1038A000882341F0853041F08091E80083FFBDCF4F
:1038B00081E0089582E0089583E00895982F97307D
:1038C00028F08F708093E90081E008959093E900DB
:1038D000242F762F50E0981731F07091EC00209152
:1038E000ED005091F00021FD02C09F5FE8CF3091C4
:1038F000EB003E7F3093EB003091ED003D7F309345
:10390000ED003091EB0031603093EB007093EC00F0
:103910002093ED005093F0002091EE0027FDE5CFBD
:1039200080E0089580919D0287FF13C08091E80098
:1039300082FF06C08091E8008B778093E80004C086
:1039400080919C028111F2CF089580919C0288237E
:10395000D9F38091E80080FFF8CF8091E8008E775E
:10396000ECCF2091E4003091E50095E6A90120918B
:10397000EC00822F817020FF06C08091E80080FF5C
:1039800006C080E008952091E80022FD1AC08091D1
:103990009C02882389F0853089F08091EB0085FDB9
:1039A0000FC02091E4003091E50042175307F9F26F
:1039B0009150E1F684E0089582E0089583E008954F
:1039C00081E008950E94511D0E94591DE0EEF0E033
:1039D000808181608083E8EDF0E080818F77808353
:1039E00019BCA7EDB0E08C918E7F8C9380818F7E87
:1039F000808310929B0208950F931F93CF93DF93C0
:103A00000E94511D0E94591DC8EDD0E088818F771A
:103A1000888388818068888388818F7D888319BCAA
:103A200010929C021092980210929A02109299029F
:103A300000EE10E0F80180818B7F808388818160B7
:103A4000888342E060E080E00E945E1CE1EEF0E0EE
:103A500080818E7F8083E2EEF0E0808181608083D0
:103A6000808188608083F80180818E7F8083888157
:103A700080618883DF91CF911F910F910895E8EDC8
:103A8000F0E080818F7E8083E7EDF0E080818160CF
:103A9000808384E082BF81E080939B020E94FC1CB3
:103AA0000895E8EDF0E080818E7F80831092E2003F
:103AB00008951092DA001092E10008951F920F927B
:103AC0000FB60F9211242F933F934F935F936F93F1
:103AD0007F938F939F93AF93BF93EF93FF938091C7
:103AE000E10082FF0BC08091E20082FF07C080915D
:103AF000E1008B7F8093E1000E94BD1F8091DA007E
:103B000080FF19C08091D80080FF15C08091DA0035
:103B10008E7F8093DA008091D90080FF96C080E18B
:103B200089BD82E189BD09B400FEFDCF81E08093AB
:103B30009C020E94A3198091E10080FF19C080912E
:103B4000E20080FF15C08091E2008E7F8093E2004A
:103B50008091E20080618093E2008091D8008062D1
:103B60008093D80019BC85E080939C020E94B7190D
:103B70008091E10084FF2BC08091E20084FF27C088
:103B800080E189BD82E189BD89B5982F917080FF60
:103B9000FBCF8091D8008F7D8093D8008091E10089
:103BA0008F7E8093E1008091E2008F7E8093E2001F
:103BB0008091E20081608093E200809198028823E6
:103BC00009F449C084E080939C020E94C01980914E
:103BD000E10083FF29C08091E20083FF25C080912E
:103BE000E100877F8093E10082E080939C02109245
:103BF00098028091E1008E7F8093E1008091E20045
:103C00008E7F8093E2008091E20080618093E200E9
:103C100042E060E080E00E945E1C8091F0008860DD
:103C20008093F0000E94B419FF91EF91BF91AF9182
:103C30009F918F917F916F915F914F913F912F91C4
:103C40000F900FBE0F901F90189519BC10929C02F8
:103C50000E94B11970CF8091E30087FD93E09093AB
:103C60009C02B3CF1F920F920FB60F9211242F9385
:103C70003F934F935F936F937F938F939F93AF93F4
:103C8000BF93CF93DF93EF93FF93D091E900DF7061
:103C90008091EC00C82FC17080FDC0E81092E9004F
:103CA0008091F000877F8093F00078940E94761EC8
:103CB0001092E9008091F00088608093F000CD2B95
:103CC000CF70C093E900FF91EF91DF91CF91BF9149
:103CD000AF919F918F917F916F915F914F913F91A4
:103CE0002F910F900FBE0F901F901895AAE2B0E091
:103CF000ECE7FEE10C9402208DE992E02091F100C6
:103D0000FC012193CF01F2E0853A9F07B9F70E94A9
:103D1000E0198091E80083FF1EC180919D0290917F
:103D20009E029A3008F017C1E92FF0E0E556FF4DEA
:103D30000C94ED1F803899F0823809F00CC1809105
:103D4000A1028F70873008F006C18093E90080914E
:103D5000EB0085FB882780F91092E90006C080916E
:103D6000990290919A02911182609091E800977F58
:103D70009093E8008093F1001092F1008091E800A8
:103D80008E77E5C0882309F4D3C0823009F0E3C000
:103D900080919F028111D6C08091A1028F702FEF78
:103DA000280F263008F0D7C08093E9002091EB005F
:103DB00020FFC8C0933031F48091EB008062809383
:103DC000EB00C0C09091EB0090619093EB0021E07C
:103DD00030E001C0220F8A95EAF72093EA001092A2
:103DE000EA008091EB008860EACF8111B4C01091A5
:103DF0009F021F778091E3008078812B8093E300FE
:103E00008091E800877F8093E8000E94921C809157
:103E1000E80080FFFCCF8091E30080688093E3009E
:103E200082E0111183E080939C0295C0805882301B
:103E300008F091C080919F029091A0028C3D23E0F8
:103E40009207A1F583E08A838AE289834FB7F894C9
:103E5000DE01139620E03EE051E2E32FF0E05093C4
:103E60005700E49120FF03C0E295EF703F5FEF70D1
:103E70008E2F90E0EA30C0F0C7968D939D932F5F10
:103E8000243159F74FBF8091E800877F8093E80085
:103E90006AE270E0CE0101960E94A11B8091E800C9
:103EA0008B778093E80057C0C096E7CF6091A1025E
:103EB0007091A202AE014F5F5F4F0E94E11ABC01F8
:103EC000892B09F448C09091E800977F9093E8000F
:103ED00089819A810E94FF1BE1CF8038E1F58091B2
:103EE000E800877F8093E800809198028093F1003A
:103EF00045CF811130C090919F02923060F5809142
:103F0000E800877F8093E800909398020E94921CBB
:103F100080919802882311F084E005C08091E3002D
:103F200087FDFACF81E080939C020E94CB1913C0D9
:103F300080919F02813079F481E0933009F080E034
:103F400080939A021092E9008091E800877F809325
:103F5000E8000E94921C8091E80083FF0AC08091D3
:103F6000E800877F8093E8008091EB008062809377
:103F7000EB00AA96E3E00C941E200895CF93809165
:103F80009C028823A1F0C091E900CF709091EC00D1
:103F9000892F817090FD80E8C82B1092E9008091F4
:103FA000E80083FD0E94761ECF70C093E900CF9198
:103FB000089597FB072E16F4009407D077FD09D0DB
:103FC0000E942A2007FC05D03EF4909581959F4FD2
:103FD0000895709561957F4F0895EE0FFF1F05902E
:103FE000F491E02D09942F923F924F925F926F923D
:103FF0007F928F929F92AF92BF92CF92DF92EF9279
:10400000FF920F931F93CF93DF93CDB7DEB7CA1BF9
:10401000DB0B0FB6F894DEBF0FBECDBF09942A8824
:10402000398848885F846E847D848C849B84AA84CC
:10403000B984C884DF80EE80FD800C811B81AA8159
:10404000B981CE0FD11D0FB6F894DEBF0FBECDBF24
:10405000ED010895AA1BBB1B51E107C0AA1FBB1F9E
:10406000A617B70710F0A61BB70B881F991F5A9504
:10407000A9F780959095BC01CD010895FB01DC0165
:1040800004C08D910190801921F441505040C8F72F
:10409000881B990B0895F999FECF92BD81BDF89ABE
:1040A000992780B50895A8E1B0E042E050E00C9473
:1040B0007F20262FF999FECF92BD81BDF89A0197F6
:1040C00000B4021639F01FBA20BD0FB6F894FA9A60
:1040D000F99A0FBE08950396272F0E945A200E9436
:1040E0005920252F0E945A20242F0C945A200196E3
:1040F000272F0E945A200C945920DC01CB01FC018F
:10410000F999FECF06C0F2BDE1BDF89A319600B430
:104110000D9241505040B8F70895F894FFCFFB043A
:10412000FB042C052C05B905D5055B055B05E005F1
:104130006C067B067B069A1EC21EAB1FC21EAB1FFF
:0A414000F51E161FAB1F6D1F791F3F
:10414A000E02280850011E0A140109192E190D1908
:10415A009E1999190C1901E200E900EA00B500B6A6
:10416A0000B700CD008301CC008A0192019401219D
:10417A0002230224022502260227022A02B300B4DD
:10418A00006F007000818283E200E900EA00B50056
:10419A00B600B700CD008301CC008A0192019401D8
:1041AA002102230224022502260227022A02B30040
:1041BA00B4006F007000818283F4F53534C69766C7
:0A41CA009490919293F63332360080
:00000001FF
